:100000000C942A000C9434000C9434000C943400AA
:100010000C9434000C9434000C9434000C94340090
:100020000C9434000C9434000C9434000C94340080
:100030000C9434000C9434000C9434000C94340070
:100040000C9434000C9434000C9434000C94340060
:100050000C94340011241FBECFE5D8E0DEBFCDBF25
:100060000E94DB000C9411010C9400004423B9F1B0
:10007000413009F06BC0813089F028F08230C9F03E
:10008000833011F108952AB381E090E002C0880F17
:10009000991F6A95E2F7822B8ABB089527B381E006
:1000A00090E002C0880F991F6A95E2F7822B87BB08
:1000B000089524B381E090E002C0880F991F6A95EB
:1000C000E2F7822B84BB089521B381E090E002C067
:1000D000880F991F6A95E2F7822B81BB08958130C2
:1000E00091F028F08230D9F0833029F108952AB3B5
:1000F00081E090E002C0880F991F6A95E2F7809531
:1001000082238ABB089527B381E090E002C0880F64
:10011000991F6A95E2F78095822387BB089524B3DF
:1001200081E090E002C0880F991F6A95E2F7809500
:10013000822384BB089521B381E090E002C0880F40
:10014000991F6A95E2F78095822381BB08958130DB
:1001500089F028F08230C9F0833011F108952BB373
:1001600081E090E002C0880F991F6A95E2F782272C
:100170008BBB089528B381E090E002C0880F991FDF
:100180006A95E2F7822788BB089525B381E090E065
:1001900002C0880F991F6A95E2F7822785BB0895F0
:1001A00022B381E090E002C0880F991F6A95E2F7C0
:1001B000822782BB089541E060E083E00E94360020
:1001C0000E94F50081E00E940C01823021F460E081
:1001D00083E00E94A7002FEF89E698E1215080403C
:1001E0009040E1F700C00000EDCF40E064E081E026
:1001F0000E94360040E065E081E00E94360041E068
:1002000066E081E00E94360040E067E081E00E9405
:10021000360080E48DB908958FB9779BFECF8FB1FA
:060220000895F894FFCFE1
:00000001FF
