S00B00004943552E7372656338
S11300000C942A000C9447000C9447000C9447006D
S11300100C9447000C9447000C949E030C94230307
S11300200C9447000C9487030C9447000C94E5024D
S11300300C9447000C9447000C9447000C94470020
S11300400C9447000C9447000C9447000C94470010
S11300500C94470011241FBECFE5D8E0DEBFCDBF0E
S113006010E0A0E6B0E0E0EFF8E002C005900D92E9
S1130070AA37B107D9F720E0AAE7B0E001C01D9282
S1130080AB39B207E1F70E9478020C9476040C9421
S11300900000442379F1413009F05FC0813079F0E8
S11300A028F08230A9F08330E1F008952AB381E08A
S11300B090E001C0880F6A95EAF7822B2CC027B321
S11300C081E090E001C0880F6A95EAF7822B2EC088
S11300D024B381E090E001C0880F6A95EAF7822B8F
S11300E030C021B381E090E001C0880F6A95EAF73F
S11300F0822B32C0813089F028F08230C9F08330FD
S113010011F108952AB381E090E001C0880F6A9547
S1130110EAF7809582238ABB089527B381E090E0B3
S113012001C0880F6A95EAF78095822387BB0895FA
S113013024B381E090E001C0880F6A95EAF78095C6
S1130140822384BB089521B381E090E001C0880F2D
S11301506A95EAF78095822381BB0895442379F157
S1130160413009F05FC0813079F028F08230A9F085
S11301708330E1F008952BB381E090E001C0880F53
S11301806A95EAF7822B2CC028B381E090E001C085
S1130190880F6A95EAF7822B2EC025B381E090E0A0
S11301A001C0880F6A95EAF7822B30C022B381E040
S11301B090E001C0880F6A95EAF7822B32C0813043
S11301C089F028F08230C9F0833011F108952BB3FF
S11301D081E090E001C0880F6A95EAF78095822358
S11301E08BBB089528B381E090E001C0880F6A9525
S11301F0EAF78095822388BB089525B381E090E0D7
S113020001C0880F6A95EAF78095822385BB08951B
S113021022B381E090E001C0880F6A95EAF78095E7
S1130220822382BB0895CF93C82F40E061E081E030
S11302300E94AE0040E062E081E00E94AE0040E037
S113024063E081E00E94AE008BB39C2F907F8F709F
S1130250892B8BBB41E063E081E00E94AE008FE913
S11302609FE00197F1F700C0000040E063E081E007
S11302700E94AE002BB330E1C39FC0011124922F22
S11302809F70892B8BBB41E063E081E00E94AE004C
S11302908FE99FE00197F1F700C0000040E063E0C0
S11302A081E00E94AE008FE19EE40197F1F700C067
S11302B00000CF91089541E061E081E00E9449008F
S11302C041E062E081E00E94490041E063E081E0B6
S11302D00E94490041E064E080E00E94490041E05E
S11302E065E080E00E94490041E066E080E00E9411
S11302F0490041E067E080E00E9449002FEF81EE71
S113030094E0215080409040E1F700C0000083E376
S11303100E94130182E30E94130188E20E941301E8
S11303208EE00E94130181E00E94130186E00E9486
S1130330130182E00C941301CF93C82F41E061E0D4
S113034081E00E94AE0040E062E081E00E94AE00E5
S113035040E063E081E00E94AE008C2F807F8BBB85
S113036041E063E081E00E94AE008FE99FE00197E5
S1130370F1F700C0000040E063E081E00E94AE00BD
S1130380C295C07FCBBB41E063E081E00E94AE0038
S11303908FE99FE00197F1F700C0000040E063E0BF
S11303A081E00E94AE008FE19EE40197F1F700C066
S11303B00000CF9108950F931F93CF938C01C0E059
S11303C0F801EC0FF11D8081882321F00E949C012B
S11303D0CF5FF6CFCF911F910F910895CF93DF9305
S11303E000D0CDB7DEB790E8998390EC9A83FE01F4
S11303F0E80FF11D8181860F0F900F90DF91CF914F
S11304000C9413014F925F926F927F928F929F92FE
S1130410AF92BF92CF92DF92EF92FF920F931F930E
S1130420CF93DF934B015C0197FF0BC08DE20E94D9
S11304309C01B094A09490948094811C911CA11C64
S1130440B11CC12CD12C7601C3942AE0422E512C2C
S1130450612C712CC501B401A30192010E943D04D9
S1130460D22FC32FF42FE52F4B015C01672B682B90
S1130470692B89F0AAE0B0E0A70196010E946B0401
S113048075016401C60ED71EE81EF91E8D2E9C2E22
S1130490AF2EBE2EDFCF8AE0882E912CA12CB12C5A
S11304A082E0C816D104E104F1048CF0C701B6015E
S11304B0A50194010E943D048901D42FC52F80E336
S11304C0860F0E949C016801ED2EFC2EE9CFDF917E
S11304D0CF911F910F91FF90EF90DF90CF90BF903D
S11304E0AF909F908F907F906F905F904F90089502
S11304F00E945B010E947F0366E470E080E090E06C
S11305000E9484030E947203812C82E1982E8AE760
S1130510A82EB12C809180008330F1F7809189005E
S113052090918A00A0918B00B0918C00C0908100C2
S1130530D0908200E0908300F0908400C81AD90A19
S1130540EA0AFB0A40918500509186006091870079
S1130550709188009A01AB01281B390B4A0B5B0B85
S1130560A4E6B0E00E946B04A70196010E941B045C
S113057029013A0160E080E00E94EE0180E690E00B
S11305800E94DB01C301B2010E94020285E20E94C3
S11305909C0160E081E00E94EE018CE690E00E9404
S11305A0DB01C501B401A70196010E941B04CA0125
S11305B0B9010E94020287E790E00E94DB011092D9
S11305C0800089B7806289BFA5CF1F920F920FB6B2
S11305D00F9211242F933F934F935F936F937F93C5
S11305E08F939F93AF93BF93EF93FF9380917E007C
S11305F090917F00019690937F0080937E002091DC
S1130600990030919A008217930761F480919700C2
S113061082BF10927F0010927E00E0919100F091D1
S113062092000995FF91EF91BF91AF919F918F91A6
S11306307F916F915F914F913F912F910F900FBEDA
S11306400F901F9018951F920F920FB60F921124BE
S11306502F933F934F935F936F937F938F939F93C6
S1130660AF93BF93EF93FF9380917A0090917B00B7
S1130670A0917C00B0917D000196A11DB11D8093D5
S11306807A0090937B00A0937C00B0937D0040910E
S11306909300509194006091950070919600841796
S11306A09507A607B70769F410927A0010927B00A9
S11306B010927C0010927D00E0918F00F0919000E8
S11306C00995FF91EF91BF91AF919F918F917F9188
S11306D06F915F914F913F912F910F900FBE0F90AB
S11306E01F901895BE9817BC16BC8EB581648EBD3C
S11306F089B7846289BF8FB780688FBF08958F9A46
S113070085B58A6685BD08958FEF83BD08951F92D0
S11307100F920FB60F9211248F939F9380918D00A7
S113072090918E00019690938E0080938D009F91FE
S11307308F910F900FBE0F901F9018951F920F92DC
S11307400FB60F9211242F933F934F935F936F93A0
S11307507F938F939F93AF93BF93809180008F5F1C
S113076080938000809180008130A1F486B597B594
S1130770A0E0B0E08093890090938A00A0938B005E
S1130780B0938C008EB58F7B8EBD10928E0010922C
S11307908D0042C0809180008230E1F446B557B5A7
S11307A020918D0030918E00AFEFBFEF0E945C046A
S11307B0DC01CB01840F951FA11DB11D8093850021
S11307C090938600A0938700B09388008EB58064D0
S11307D08EBD22C0809180008330F1F446B557B5B8
S11307E020918D0030918E00AFEFBFEF0E945C042A
S11307F0DC01CB01840F951FA11DB11D80938100E5
S113080090938200A0938300B09384008EB58F7B75
S11308108EBD89B78F7D89BFBF91AF919F918F9115
S11308207F916F915F914F913F912F910F900FBEE8
S11308300F901F901895A1E21A2EAA1BBB1BFD0155
S11308400DC0AA1FBB1FEE1FFF1FA217B307E407AB
S1130850F50720F0A21BB30BE40BF50B661F771F03
S1130860881F991F1A9469F76095709580959095E3
S11308709B01AC01BD01CF010895052E97FB1EF429
S113088000940E94540457FD07D00E941B0407FCE7
S113089003D04EF40C945404509540953095219512
S11308A03F4F4F4F5F4F0895909580957095619598
S11308B07F4F8F4F9F4F0895A29FB001B39FC001F8
S11308C0A39F700D811D1124911DB29F700D811D78
S11308D01124911D08950E945C04A59F900DB49F5E
S11308E0900DA49F800D911D11240895F894FFCFBD
S11308F044757479204379636C653A004672657176
S10D090075656E63793A00485A00E9
S9030000FC
