:100000000C942A000C943F000C943F000C943F0089
:100010000C943F000C943F000C943F000C943F0064
:100020000C943F000C943F000C943F000C943F0054
:100030000C943F000C943F000C943F000C943F0044
:100040000C943F000C943F000C943F000C943F0034
:100050000C943F0011241FBECFE5D8E0DEBFCDBF1A
:1000600010E0A0E6B0E0E8EBF3E002C005900D92EE
:10007000AC38B107D9F70E9457010C94DA010C94FF
:1000800000004423B9F1413009F06BC0813089F0A0
:1000900028F08230C9F0833011F108952AB381E04D
:1000A00090E002C0880F991F6A95E2F7822B8ABB05
:1000B000089527B381E090E002C0880F991F6A95E8
:1000C000E2F7822B87BB089524B381E090E002C061
:1000D000880F991F6A95E2F7822B84BB089521B39C
:1000E00081E090E002C0880F991F6A95E2F7822BA9
:1000F00081BB0895813091F028F08230D9F08330AF
:1001000029F108952AB381E090E002C0880F991F79
:100110006A95E2F7809582238ABB089527B381E030
:1001200090E002C0880F991F6A95E2F780958223BC
:1001300087BB089524B381E090E002C0880F991F27
:100140006A95E2F78095822384BB089521B381E00C
:1001500090E002C0880F991F6A95E2F7809582238C
:1001600081BB08954423B9F1413009F06BC081305F
:1001700089F028F08230C9F0833011F108952BB353
:1001800081E090E002C0880F991F6A95E2F7822B08
:100190008BBB089528B381E090E002C0880F991FBF
:1001A0006A95E2F7822B88BB089525B381E090E041
:1001B00002C0880F991F6A95E2F7822B85BB0895CC
:1001C00022B381E090E002C0880F991F6A95E2F7A0
:1001D000822B82BB0895813091F028F08230D9F0D3
:1001E000833029F108952BB381E090E002C0880F9D
:1001F000991F6A95E2F7809582238BBB089528B3F7
:1002000081E090E002C0880F991F6A95E2F780951F
:10021000822388BB089525B381E090E002C0880F57
:10022000991F6A95E2F78095822385BB089522B3D2
:1002300081E090E002C0880F991F6A95E2F78095EF
:10024000822382BB0895813089F028F08230C9F082
:10025000833011F108952BB381E090E002C0880F44
:10026000991F6A95E2F782278BBB089528B381E036
:1002700090E002C0880F991F6A95E2F7822788BB39
:10028000089525B381E090E002C0880F991F6A9518
:10029000E2F7822785BB089522B381E090E002C097
:1002A000880F991F6A95E2F7822782BB08950E9402
:1002B000A90141E062E082E00E94410041E063E088
:1002C00082E00E9441000E9487010E949E012FEF60
:1002D00089E698E1215080409040E1F700C000009D
:1002E00080E690E00E94C4010E94C0010E94A40127
:1002F000823019F462E00E9423012FEF89E698E131
:10030000215080409040E1F700C00000E9CF41E07B
:1003100064E081E00E94410041E065E081E00E94EC
:10032000410040E066E081E00E94410041E067E07A
:1003300081E00E94410083E58DB9089540E064E0CA
:1003400081E00E94B20008958FB9779BFECF8FB1F4
:10035000089540E060E083E00E94410041E061E0F8
:1003600083E00E9441008AB188618AB980B58668BD
:1003700080BD87E689B908955D9BFECF8CB908954D
:100380005F9BFECF8CB108950F931F93CF93FC0119
:100390008081882359F08F01C0E00E94BC01CF5FAB
:1003A000F801EC0FF11D80818111F7CFCF911F91E2
:0803B0000F910895F894FFCFAE
:1003B8005072657373206C20746F204F6E2F4F66D8
:1003C80066204C6564206F72206220746F204F6E27
:0C03D8002F4F66662042757A7A6572002D
:00000001FF
