:100000000C942A000C9447000C9447000C94470071
:100010000C9447000C9447000C9447000C94470044
:100020000C9447000C9447000C9447000C94470034
:100030000C9447000C9447000C9447000C94470024
:100040000C9447000C9447000C9447000C94470014
:100050000C94470011241FBECFE5D8E0DEBFCDBF12
:1000600010E0A0E6B0E0E8EBF8E002C005900D92E9
:10007000A239B107D9F720E0A2E9B0E001C01D9292
:10008000AF39B207E1F70E94F2030C945A040C94C2
:1000900000003F983E9A389A359A309A319A329AAF
:1000A00033983D98379A0895369A349BFECF64B1C1
:1000B00075B144EF51E0649F9001659F300D749FCE
:1000C000300D1124232F26952695FC0120831182C3
:1000D0000895442379F1413009F05FC0813079F00F
:1000E00028F08230A9F08330E1F008952AB381E04E
:1000F00090E001C0880F6A95EAF7822B2CC027B3E5
:1001000081E090E001C0880F6A95EAF7822B2EC04B
:1001100024B381E090E001C0880F6A95EAF7822B52
:1001200030C021B381E090E001C0880F6A95EAF702
:10013000822B32C0813089F028F08230C9F08330C0
:1001400011F108952AB381E090E001C0880F6A950B
:10015000EAF7809582238ABB089527B381E090E077
:1001600001C0880F6A95EAF78095822387BB0895BE
:1001700024B381E090E001C0880F6A95EAF780958A
:10018000822384BB089521B381E090E001C0880FF1
:100190006A95EAF78095822381BB0895442379F11B
:1001A000413009F05FC0813079F028F08230A9F049
:1001B0008330E1F008952BB381E090E001C0880F17
:1001C0006A95EAF7822B2CC028B381E090E001C049
:1001D000880F6A95EAF7822B2EC025B381E090E064
:1001E00001C0880F6A95EAF7822B30C022B381E004
:1001F00090E001C0880F6A95EAF7822B32C0813007
:1002000089F028F08230C9F0833011F108952BB3C2
:1002100081E090E001C0880F6A95EAF7809582231B
:100220008BBB089528B381E090E001C0880F6A95E8
:10023000EAF78095822388BB089525B381E090E09A
:1002400001C0880F6A95EAF78095822385BB0895DF
:1002500022B381E090E001C0880F6A95EAF78095AB
:10026000822382BB0895FA01813041F028F0823068
:1002700039F0833039F0089589B305C086B303C0DF
:1002800083B301C080B390E002C0959587956A95CD
:10029000E2F7817080830895813081F028F0823008
:1002A000B9F08330F9F008952BB381E090E001C0FC
:1002B000880F6A95EAF7822B8BBB089528B381E0FB
:1002C00090E001C0880F6A95EAF7822B88BB0895F9
:1002D00025B381E090E001C0880F6A95EAF7822B90
:1002E00085BB089522B381E090E001C0880F6A9534
:1002F000EAF7822B82BB089541E060E083E00E9430
:10030000690041E061E083E00E94690041E062E051
:1003100083E00E94690041E063E083E00E9469009D
:1003200040E064E083E00E94690040E065E083E033
:100330000E94690040E066E083E00E94690040E0BE
:1003400067E083E00E94690064E083E00E944C0162
:1003500065E083E00E944C0166E083E00E944C016E
:1003600067E083E00E944C0141E060E083E00E948E
:10037000CE0041E061E083E00E94CE0041E062E017
:1003800083E00E94CE0041E063E083E00C94CE0065
:10039000BF92CF92DF92EF92FF920F931F93CF9372
:1003A000DF931F92CDB7DEB7198286E6E82E80E094
:1003B000F82EB12C10E040E0612F83E00E94CE00C7
:1003C000670104E0AE014F5F5F4F602F83E00E9442
:1003D00033018981811113C0F601B08089818111B7
:1003E00008C0AE014F5F5F4F602F83E00E94330172
:1003F000F5CF8FE39CE90197F1F700C000000F5F94
:1004000094E0C90ED11C0830E9F641E0612F83E089
:100410000E94CE001F5FEFEFEE1AFE0A143059F66D
:100420008B2D0F90DF91CF911F910F91FF90EF9047
:10043000DF90CF90BF900895CF93C82F40E061E048
:1004400081E00E94CE0040E062E081E00E94CE00A8
:1004500040E063E081E00E94CE008BB39C2F907F50
:100460008F70892B8BBB41E063E081E00E94CE005E
:100470008FE99FE00197F1F700C0000040E063E0E2
:1004800081E00E94CE002BB330E1C39FC001112454
:10049000922F9F70892B8BBB41E063E081E00E942B
:1004A000CE008FE99FE00197F1F700C0000040E027
:1004B00063E081E00E94CE008FE19EE40197F1F7B6
:1004C00000C00000CF91089541E061E081E00E940A
:1004D000690041E062E081E00E94690041E063E080
:1004E00081E00E94690041E064E080E00E946900D0
:1004F00041E065E080E00E94690041E066E080E064
:100500000E94690041E067E080E00E9469002FEFEF
:1005100081EE94E0215080409040E1F700C000005F
:1005200083E30E941C0282E30E941C0288E20E9474
:100530001C028CE00E941C0281E00E941C0286E0EA
:100540000E941C0282E00C941C02CF93C82F41E051
:1005500061E081E00E94CE0040E062E081E00E9424
:10056000CE0040E063E081E00E94CE008C2F807FCF
:100570008BBB41E063E081E00E94CE008FE99FE009
:100580000197F1F700C0000040E063E081E00E94C5
:10059000CE00C295C07FCBBB41E063E081E00E940A
:1005A000CE008FE99FE00197F1F700C0000040E026
:1005B00063E081E00E94CE008FE19EE40197F1F7B5
:1005C00000C00000CF9108950F931F93CF938C012B
:1005D000C0E0F801EC0FF11D8081882321F00E941A
:1005E000A502CF5FF6CFCF911F910F9108954F9243
:1005F0005F926F927F928F929F92AF92BF92CF92B3
:10060000DF92EF92FF924B015C0197FF0BC08DE2EE
:100610000E94A502B094A09490948094811C911C97
:10062000A11CB11C61E070E080E090E03AE0432E54
:10063000512C612C712C81149104A104B104A9F0F6
:10064000AAE0B0E09B01AC010E941E046B017C019A
:10065000C501B401A30192010E94FF036C0D7D1D31
:100660008E1D9F1D49015A01E6CF2AE0C22ED12CD2
:10067000E12CF12C62307105810591056CF0A70128
:1006800096010E94FF0349015A0180E3860F0E94F0
:10069000A502B401C501EECFFF90EF90DF90CF909F
:1006A000BF90AF909F908F907F906F905F904F9092
:1006B000089581E00C941C020E94C80180939C0064
:1006C000882309F48EC090919B00973018F49F5FA7
:1006D00090939B00E0919A00F0E0EC56FF4F8083EE
:1006E0000E94A50280919A008F5F80939A0090915A
:1006F0009B009630F9F440919D0080E08630B1F087
:10070000282F30E051E0580F41E0F901EC56FF4F3F
:10071000D901A05ABF4F60812C91621729F08093B4
:100720009E0010929D0006C0852FE8CF80939E000A
:1007300040939D0080919D008823F9F0963008F445
:1007400050C086E790E00E94E40282E990E00E94B7
:10075000FD030E945903609192007091930080E024
:1007600090E00E94F7022FEF81EE94E0215080404C
:100770009040E1F700C000000895963090F10E948B
:10078000590310929E00E0919E00E63060F4F0E084
:10079000EC56FF4F80810E94A50280919E008F5FE2
:1007A00080939E00F0CF2FEF81EE94E021508040A7
:1007B0009040E1F700C000000E94590382E890E0F9
:1007C0000E94E4022FEF81EE94E02150804090409F
:1007D000E1F700C000000E94590310929B001092A4
:1007E0009A0008950E94FB030E9464020E947C010B
:1007F0000E945C03FDCF0C9449000C945400052E1C
:1008000097FB1EF400940E94160457FD07D00E9427
:10081000290407FC03D04EF40C941604509540951F
:10082000309521953F4F4F4F5F4F0895909580959C
:10083000709561957F4F8F4F9F4F08950E944B0495
:10084000A59F900DB49F900DA49F800D911D112424
:100850000895A1E21A2EAA1BBB1BFD010DC0AA1F01
:10086000BB1FEE1FFF1FA217B307E407F50720F019
:10087000A21BB30BE40BF50B661F771F881F991F94
:100880001A9469F760957095809590959B01AC01DD
:10089000BD01CF010895A29FB001B39FC001A39FE6
:1008A000700D811D1124911DB29F700D811D1124A9
:0808B000911D0895F894FFCF9B
:1008B8000504050405043738392F3435362A313212
:1008C800332D63303D2B50617373206D6174636801
:1008D80020005061737320496E636F727265637490
:0208E80000000E
:00000001FF
