:100000000C942A000C943C000C943C000C943C0092
:100010000C943C000C943C000C943C000C94630148
:100020000C943C000C943C000C943C000C94250176
:100030000C943C000C943C000C943C000C943C0050
:100040000C943C000C943C000C943C000C943C0040
:100050000C943C0011241FBECFE5D8E0DEBFCDBF1D
:1000600020E0A0E6B0E001C01D92A237B207E1F7A0
:100070000E94E3000C94B2010C9400004423B9F1F7
:10008000413009F06BC0813089F028F08230C9F02E
:10009000833011F108952AB381E090E002C0880F07
:1000A000991F6A95E2F7822B8ABB089527B381E0F6
:1000B00090E002C0880F991F6A95E2F7822B87BBF8
:1000C000089524B381E090E002C0880F991F6A95DB
:1000D000E2F7822B84BB089521B381E090E002C057
:1000E000880F991F6A95E2F7822B81BB08958130B2
:1000F00091F028F08230D9F0833029F108952AB3A5
:1001000081E090E002C0880F991F6A95E2F7809520
:1001100082238ABB089527B381E090E002C0880F54
:10012000991F6A95E2F78095822387BB089524B3CF
:1001300081E090E002C0880F991F6A95E2F78095F0
:10014000822384BB089521B381E090E002C0880F30
:10015000991F6A95E2F78095822381BB08958130CB
:1001600089F028F08230C9F0833011F108952BB363
:1001700081E090E002C0880F991F6A95E2F782271C
:100180008BBB089528B381E090E002C0880F991FCF
:100190006A95E2F7822788BB089525B381E090E055
:1001A00002C0880F991F6A95E2F7822785BB0895E0
:1001B00022B381E090E002C0880F991F6A95E2F7B0
:1001C000822782BB089541E062E082E00E943E0007
:1001D00041E063E082E00E943E000E94090182E06B
:1001E0000E942001853029F462E082E00E94AF0085
:1001F00006C0863021F463E082E00E94AF002FEF5A
:1002000089E698E1215080409040E1F700C000006D
:10021000E6CF40E064E081E00E943E0040E065E01F
:1002200081E00E943E0041E066E081E00E943E00E5
:1002300040E067E081E00E943E0080E48DB90895CF
:100240008FB9779BFECF8FB108951F920F920FB693
:100250000F9211242F933F934F935F936F937F934C
:100260008F939F93AF93BF93EF93FF93809164001D
:1002700090916500019690936500809364002091B1
:100280007000309171008217930761F480916E00C5
:1002900082BF1092650010926400E0916800F091B6
:1002A00069000995FF91EF91BF91AF919F918F9157
:1002B0007F916F915F914F913F912F910F900FBE62
:1002C0000F901F9018951F920F920FB60F92112446
:1002D0002F933F934F935F936F937F938F939F934E
:1002E000AF93BF93EF93FF93809160009091610073
:1002F000A0916200B09163000196A11DB11D809391
:10030000600090936100A0936200B09363004091FD
:100310006A0050916B0060916C0070916D008417C1
:100320009507A607B70769F4109260001092610064
:100330001092620010926300E0916600F0916700F5
:100340000995FF91EF91BF91AF919F918F917F910F
:100350006F915F914F913F912F910F900FBE0F9032
:080360001F901895F894FFCFDF
:00000001FF
