S00C0000554152542E73726563DC
S11300000C942A000C943C000C943C000C943C008E
S11300100C943C000C943C000C9489020C94230234
S11300200C943C000C9472020C943C000C94E5017A
S11300300C943C000C943C000C943C000C943C004C
S11300400C943C000C943C000C943C000C943C003C
S11300500C943C0011241FBECFE5D8E0DEBFCDBF19
S113006020E0A0E6B0E001C01D92A138B207E1F79C
S11300700E94D0010C9430030C940000442379F1C5
S1130080413009F05FC0813079F028F08230A9F066
S11300908330E1F008952AB381E090E001C0880F35
S11300A06A95EAF7822B2CC027B381E090E001C067
S11300B0880F6A95EAF7822B2EC024B381E090E082
S11300C001C0880F6A95EAF7822B30C021B381E022
S11300D090E001C0880F6A95EAF7822B32C0813024
S11300E089F028F08230C9F0833011F108952AB3E1
S11300F081E090E001C0880F6A95EAF78095822339
S11301008ABB089527B381E090E001C0880F6A9507
S1130110EAF78095822387BB089524B381E090E0B9
S113012001C0880F6A95EAF78095822384BB0895FD
S113013021B381E090E001C0880F6A95EAF78095C9
S1130140822381BB0895442379F1413009F05FC0D3
S1130150813079F028F08230A9F08330E1F00895FD
S11301602BB381E090E001C0880F6A95EAF7822BF7
S11301702CC028B381E090E001C0880F6A95EAF7AB
S1130180822B2EC025B381E090E001C0880F6A95D0
S1130190EAF7822B30C022B381E090E001C0880FDF
S11301A06A95EAF7822B32C0813089F028F08230D8
S11301B0C9F0833011F108952BB381E090E001C0C0
S11301C0880F6A95EAF7809582238BBB089528B33C
S11301D081E090E001C0880F6A95EAF78095822358
S11301E088BB089525B381E090E001C0880F6A952B
S11301F0EAF78095822385BB089522B381E090E0DD
S113020001C0880F6A95EAF78095822382BB08951E
S1130210CF93C82F40E061E081E00E94A30040E05A
S113022062E081E00E94A30040E063E081E00E947C
S1130230A3008BB39C2F907F8F70892B8BBB41E0E5
S113024063E081E00E94A3008FE99FE00197F1F74A
S113025000C0000040E063E081E00E94A3002BB3F3
S113026030E1C39FC0011124922F9F70892B8BBB57
S113027041E063E081E00E94A3008FE99FE00197E1
S1130280F1F700C0000040E063E081E00E94A300B9
S11302908FE19EE40197F1F700C00000CF9108952B
S11302A041E061E081E00E943E0041E062E081E0E3
S11302B00E943E0041E063E081E00E943E0041E094
S11302C064E080E00E943E0041E065E080E00E943E
S11302D03E0041E066E080E00E943E0041E067E0CD
S11302E080E00E943E002FEF81EE94E02150804098
S11302F09040E1F700C0000083E30E94080182E31C
S11303000E94080188E20E9408018CE00E94080112
S113031081E00E94080186E00E94080182E00C94BA
S11303200801CF93C82F41E061E081E00E94A3005F
S113033040E062E081E00E94A30040E063E081E0ED
S11303400E94A3008C2F807F8BBB41E063E081E09F
S11303500E94A3008FE99FE00197F1F700C000001D
S113036040E063E081E00E94A300C295C07FCBBB64
S113037041E063E081E00E94A3008FE99FE00197E0
S1130380F1F700C0000040E063E081E00E94A300B8
S11303908FE19EE40197F1F700C00000CF9108952A
S11303A00E9406030E9450018EE40E9419030E94D9
S11303B01D032FEF31EE94E0215030409040E1F7DF
S11303C000C000000E949101F2CF1F920F920FB65D
S11303D00F9211242F933F934F935F936F937F93C7
S11303E08F939F93AF93BF93EF93FF938091640098
S11303F0909165000196909365008093640020912C
S11304007F00309180008217930761F480917D0012
S113041082BF1092650010926400E0917700F09121
S113042078000995FF91EF91BF91AF919F918F91C2
S11304307F916F915F914F913F912F910F900FBEDC
S11304400F901F9018951F920F920FB60F921124C0
S11304502F933F934F935F936F937F938F939F93C8
S1130460AF93BF93EF93FF938091600090916100ED
S1130470A0916200B09163000196A11DB11D80930B
S1130480600090936100A0936200B0936300409178
S1130490790050917A0060917B0070917C00841700
S11304A09507A607B70769F41092600010926100DF
S11304B01092620010926300E0917500F091760052
S11304C00995FF91EF91BF91AF919F918F917F918A
S11304D06F915F914F913F912F910F900FBE0F90AD
S11304E01F9018951F920F920FB60F9211248F939D
S11304F09F9380917300909174000196909374007F
S1130500809373009F918F910F900FBE0F901F9057
S113051018951F920F920FB60F9211242F933F93A9
S11305204F935F936F937F938F939F93AF93BF93F7
S1130530809166008F5F80936600809166008130B1
S1130540A1F486B597B5A0E0B0E080936F009093D6
S11305507000A0937100B09372008EB58F7B8EBD36
S1130560109274001092730042C080916600823031
S1130570E1F446B557B52091730030917400AFEFA4
S1130580BFEF0E942103DC01CB01840F951FA11D45
S1130590B11D80936B0090936C00A0936D00B09399
S11305A06E008EB580648EBD22C08091660083305B
S11305B0F1F446B557B52091730030917400AFEF54
S11305C0BFEF0E942103DC01CB01840F951FA11D05
S11305D0B11D8093670090936800A0936900B09365
S11305E06A008EB58F7B8EBD89B78F7D89BFBF9121
S11305F0AF919F918F917F916F915F914F913F91B7
S11306002F910F900FBE0F901F90189540E060E05F
S113061083E00E943E0041E061E083E00E943E00EE
S11306208AB188618AB980B5866880BD87E689B950
S113063008955D9BFECF8CB908955F9BFECF8CB16E
S11306400895A29FB001B39FC001A39F700D811DA7
S11306501124911DB29F700D811D1124911D0895C7
S1070660F894FFCF38
S9030000FC
