:100000000C942A000C943F000C943F000C943F0089
:100010000C943F000C943F000C943F000C943F0064
:100020000C943F000C943F000C943F000C943F0054
:100030000C943F000C943F000C943F000C943F0044
:100040000C943F000C943F000C943F000C943F0034
:100050000C943F0011241FBECFE5D8E0DEBFCDBF1A
:1000600010E0A0E6B0E0E6EDF2E002C005900D92EF
:10007000A43AB107D9F70E940B010C9469010C94C2
:100080000000442379F1413009F05FC0813079F0FC
:1000900028F08230A9F08330E1F008952AB381E09E
:1000A00090E001C0880F6A95EAF7822B2CC027B335
:1000B00081E090E001C0880F6A95EAF7822B2EC09C
:1000C00024B381E090E001C0880F6A95EAF7822BA3
:1000D00030C021B381E090E001C0880F6A95EAF753
:1000E000822B32C0813089F028F08230C9F0833011
:1000F00011F108952AB381E090E001C0880F6A955C
:10010000EAF7809582238ABB089527B381E090E0C7
:1001100001C0880F6A95EAF78095822387BB08950E
:1001200024B381E090E001C0880F6A95EAF78095DA
:10013000822384BB089521B381E090E001C0880F41
:100140006A95EAF78095822381BB0895442379F16B
:10015000413009F05FC0813079F028F08230A9F099
:100160008330E1F008952BB381E090E001C0880F67
:100170006A95EAF7822B2CC028B381E090E001C099
:10018000880F6A95EAF7822B2EC025B381E090E0B4
:1001900001C0880F6A95EAF7822B30C022B381E054
:1001A00090E001C0880F6A95EAF7822B32C0813057
:1001B00089F028F08230C9F0833011F108952BB313
:1001C00081E090E001C0880F6A95EAF7809582236C
:1001D0008BBB089528B381E090E001C0880F6A9539
:1001E000EAF78095822388BB089525B381E090E0EB
:1001F00001C0880F6A95EAF78095822385BB089530
:1002000022B381E090E001C0880F6A95EAF78095FB
:10021000822382BB08950E943B010E941A010E9422
:10022000310180E690E00E9456010E9452010E9436
:100230003601F7CF41E064E081E00E94410041E0F7
:1002400065E081E00E94410040E066E081E00E94BC
:10025000410041E067E081E00E94410083E58DB903
:10026000089540E064E081E00C94A6008FB9779B8C
:10027000FECF8FB1089540E060E083E00E9441002E
:1002800041E061E083E00E9441008AB188618AB95F
:1002900080B5866880BD83E389B908955D9BFECFF4
:1002A0008CB908955F9BFECF8CB108950F931F9377
:1002B000CF938C01C0E0F801EC0FF11D8081882301
:1002C00021F00E944E01CF5FF6CFCF911F910F9189
:0602D0000895F894FFCF31
:1002D6005072657373206C20746F204F6E2F4F66BB
:1002E60066204C6564206320746F20636C6F636BBB
:1002F60077697365206D6F746F72206120746F204B
:10030600616E7469636C6F636B77697365206D6F7B
:04031600746F72008E
:00000001FF
