:100000000C942A000C943C000C943C000C943C0092
:100010000C943C000C943C000C943C000C9450015B
:100020000C943C000C943C000C943C000C94120189
:100030000C943C000C943C000C943C000C943C0050
:100040000C943C000C943C000C943C000C943C0040
:100050000C943C0011241FBECFE5D8E0DEBFCDBF1D
:1000600020E0A0E6B0E001C01D92A237B207E1F7A0
:100070000E94D3000C949F010C940000442379F15A
:10008000413009F05FC0813079F028F08230A9F06A
:100090008330E1F008952AB381E090E001C0880F39
:1000A0006A95EAF7822B2CC027B381E090E001C06B
:1000B000880F6A95EAF7822B2EC024B381E090E086
:1000C00001C0880F6A95EAF7822B30C021B381E026
:1000D00090E001C0880F6A95EAF7822B32C0813028
:1000E00089F028F08230C9F0833011F108952AB3E5
:1000F00081E090E001C0880F6A95EAF7809582233D
:100100008ABB089527B381E090E001C0880F6A950B
:10011000EAF78095822387BB089524B381E090E0BD
:1001200001C0880F6A95EAF78095822384BB089501
:1001300021B381E090E001C0880F6A95EAF78095CD
:10014000822381BB0895813081F028F08230B9F09C
:100150008330F9F008952BB381E090E001C0880F5F
:100160006A95EAF782278BBB089528B381E090E077
:1001700001C0880F6A95EAF7822788BB089525B3E6
:1001800081E090E001C0880F6A95EAF7822785BB7D
:10019000089522B381E090E001C0880F6A95EAF7E4
:1001A000822782BB089541E062E082E00E943E0027
:1001B00041E063E082E00E943E000E94F60082E09F
:1001C0000E940D01853011F462E003C0863021F4F5
:1001D00063E082E00E94A3002FEF89E698E12150BE
:1001E00080409040E1F700C00000E9CF40E064E0CB
:1001F00081E00E943E0040E065E081E00E943E0018
:1002000041E066E081E00E943E0040E067E081E07E
:100210000E943E0080E48DB908958FB9779BFECF90
:100220008FB108951F920F920FB60F9211242F9342
:100230003F934F935F936F937F938F939F93AF936E
:10024000BF93EF93FF9380916400909165000196B6
:10025000909365008093640020917000309171004C
:100260008217930761F480916E0082BF109265003F
:1002700010926400E0916800F09169000995FF9187
:10028000EF91BF91AF919F918F917F916F915F910E
:100290004F913F912F910F900FBE0F901F90189587
:1002A0001F920F920FB60F9211242F933F934F93EB
:1002B0005F936F937F938F939F93AF93BF93EF93CE
:1002C000FF938091600090916100A0916200B091D5
:1002D00063000196A11DB11D8093600090936100A1
:1002E000A0936200B093630040916A0050916B004C
:1002F00060916C0070916D0084179507A607B70791
:1003000069F41092600010926100109262001092E5
:100310006300E0916600F09167000995FF91EF910D
:10032000BF91AF919F918F917F916F915F914F910D
:100330003F912F910F900FBE0F901F901895F8943A
:02034000FFCFED
:00000001FF
