S0120000536572766F4D6F746F722E73726563F2
S11300000C942A000C943C000C943C000C943C008E
S11300100C943C000C943C000C943C000C94F100B7
S11300200C943C000C943C000C943C000C94B300E5
S11300300C943C000C943C000C943C000C943C004C
S11300400C943C000C943C000C943C000C943C003C
S11300500C943C0011241FBECFE5D8E0DEBFCDBF19
S113006020E0A0E6B0E001C01D92A237B207E1F79C
S11300700E94A3000C9474010C940000442379F1B1
S1130080413009F05FC0813079F028F08230A9F066
S11300908330E1F008952AB381E090E001C0880F35
S11300A06A95EAF7822B2CC027B381E090E001C067
S11300B0880F6A95EAF7822B2EC024B381E090E082
S11300C001C0880F6A95EAF7822B30C021B381E022
S11300D090E001C0880F6A95EAF7822B32C0813024
S11300E089F028F08230C9F0833011F108952AB3E1
S11300F081E090E001C0880F6A95EAF78095822339
S11301008ABB089527B381E090E001C0880F6A9507
S1130110EAF78095822387BB089524B381E090E0B9
S113012001C0880F6A95EAF78095822384BB0895FD
S113013021B381E090E001C0880F6A95EAF78095C9
S1130140822381BB08950E94AA0087E090E00E9468
S11301504B01FFCF41E065E083E00E943E000E9436
S113016040010C945C011F920F920FB60F92112460
S11301702F933F934F935F936F937F938F939F93AB
S1130180AF93BF93EF93FF938091640090916500C8
S113019001969093650080936400209170003091E3
S11301A071008217930761F480916E0082BF1092F0
S11301B0650010926400E0916800F091690009956F
S11301C0FF91EF91BF91AF919F918F917F916F912B
S11301D05F914F913F912F910F900FBE0F901F9001
S11301E018951F920F920FB60F9211242F933F93DD
S11301F04F935F936F937F938F939F93AF93BF932B
S1130200EF93FF938091600090916100A091620050
S1130210B09163000196A11DB11D8093600090937D
S11302206100A0936200B093630040916A00509112
S11302306B0060916C0070916D0084179507A607A0
S1130240B70769F410926000109261001092620086
S113025010926300E0916600F09167000995FF91A8
S1130260EF91BF91AF919F918F917F916F915F912A
S11302704F913F912F910F900FBE0F901F901895A3
S11302808FB582608FBD8EB588618EBD82EE94E09D
S113029097BD86BD089522EE34E0AC01429FC001B3
S11302A0439F900D529F900D112464E670E00E94CC
S11302B0600161506ABD08958EB584608EBD089555
S11302C0AA1BBB1B51E107C0AA1FBB1FA617B70778
S11302D010F0A61BB70B881F991F5A95A9F7809594
S10F02E09095BC01CD010895F894FFCF67
S9030000FC
