:100000000C942A000C9434000C9434000C943400AA
:100010000C9434000C9434000C9434000C94340090
:100020000C9434000C9434000C9434000C94340080
:100030000C9434000C9434000C9434000C94340070
:100040000C9434000C9434000C9434000C94340060
:100050000C94340011241FBECFE5D8E0DEBFCDBF25
:100060000E94CB000C9401010C940000442379F110
:10007000413009F05FC0813079F028F08230A9F07A
:100080008330E1F008952AB381E090E001C0880F49
:100090006A95EAF7822B2CC027B381E090E001C07B
:1000A000880F6A95EAF7822B2EC024B381E090E096
:1000B00001C0880F6A95EAF7822B30C021B381E036
:1000C00090E001C0880F6A95EAF7822B32C0813038
:1000D00089F028F08230C9F0833011F108952AB3F5
:1000E00081E090E001C0880F6A95EAF7809582234D
:1000F0008ABB089527B381E090E001C0880F6A951C
:10010000EAF78095822387BB089524B381E090E0CD
:1001100001C0880F6A95EAF78095822384BB089511
:1001200021B381E090E001C0880F6A95EAF78095DD
:10013000822381BB0895813081F028F08230B9F0AC
:100140008330F9F008952BB381E090E001C0880F6F
:100150006A95EAF782278BBB089528B381E090E087
:1001600001C0880F6A95EAF7822788BB089525B3F6
:1001700081E090E001C0880F6A95EAF7822785BB8D
:10018000089522B381E090E001C0880F6A95EAF7F4
:10019000822782BB089541E060E083E00E94360040
:1001A0000E94E50081E00E94FC00823021F460E0C2
:1001B00083E00E949B002FEF89E698E12150804068
:1001C0009040E1F700C00000EDCF40E064E081E046
:1001D0000E94360040E065E081E00E94360041E088
:1001E00066E081E00E94360040E067E081E00E9426
:1001F000360080E48DB908958FB9779BFECF8FB11B
:060200000895F894FFCF01
:00000001FF
