:100000000C942A000C943C000C943C000C943C0092
:100010000C943C000C943C000C943C000C947D002F
:100020000C943C000C943C000C943C000C943F005D
:100030000C943C000C943C000C943C000C943C0050
:100040000C943C000C943C000C943C000C943C0040
:100050000C943C0011241FBECFE5D8E0DEBFCDBF1D
:1000600020E0A0E6B0E001C01D92A237B207E1F7A0
:100070000E943E000C94CC000C940000FFCF1F9215
:100080000F920FB60F9211242F933F934F935F93CC
:100090006F937F938F939F93AF93BF93EF93FF9350
:1000A0008091640090916500019690936500809323
:1000B000640020917000309171008217930761F401
:1000C00080916E0082BF1092650010926400E091F2
:1000D0006800F09169000995FF91EF91BF91AF9190
:1000E0009F918F917F916F915F914F913F912F9150
:1000F0000F900FBE0F901F9018951F920F920FB682
:100100000F9211242F933F934F935F936F937F939D
:100110008F939F93AF93BF93EF93FF938091600072
:1001200090916100A0916200B09163000196A11DC1
:10013000B11D8093600090936100A0936200B09322
:10014000630040916A0050916B0060916C00709167
:100150006D0084179507A607B70769F41092600031
:10016000109261001092620010926300E0916600AC
:10017000F09167000995FF91EF91BF91AF919F9129
:100180008F917F916F915F914F913F912F910F9040
:0C0190000FBE0F901F901895F894FFCF41
:00000001FF
