:100000000C942A000C943C000C943C000C943C0092
:100010000C943C000C943C000C943C000C94820129
:100020000C943C000C943C000C943C000C94440157
:100030000C943C000C943C000C943C000C943C0050
:100040000C943C000C943C000C943C000C943C0040
:100050000C943C0011241FBECFE5D8E0DEBFCDBF1D
:1000600020E0A0E6B0E001C01D92A237B207E1F7A0
:100070000E9439010C94FB010C94000041E063E004
:1000800082E00E946F0041E064E082E00E946F0025
:1000900041E063E081E00E946F000C94D101880F81
:1000A000982F990F990F890F90E00C94D90188230C
:1000B00019F0813041F0089541E063E082E00E9450
:1000C000D40040E006C040E063E082E00E94D4003B
:1000D00041E064E082E00C94D4000C94E3014423FA
:1000E00079F1413009F05FC0813079F028F0823039
:1000F000A9F08330E1F008952AB381E090E001C0D7
:10010000880F6A95EAF7822B2CC027B381E090E034
:1001100001C0880F6A95EAF7822B2EC024B381E0D4
:1001200090E001C0880F6A95EAF7822B30C021B3B6
:1001300081E090E001C0880F6A95EAF7822B32C017
:10014000813089F028F08230C9F0833011F10895B0
:100150002AB381E090E001C0880F6A95EAF78095A4
:1001600082238ABB089527B381E090E001C0880F05
:100170006A95EAF78095822387BB089524B381E0CE
:1001800090E001C0880F6A95EAF78095822384BBCE
:10019000089521B381E090E001C0880F6A95EAF7E5
:1001A0008095822381BB0895442379F1413009F081
:1001B0005FC0813079F028F08230A9F08330E1F01F
:1001C00008952BB381E090E001C0880F6A95EAF7AB
:1001D000822B2CC028B381E090E001C0880F6A9583
:1001E000EAF7822B2EC025B381E090E001C0880F92
:1001F0006A95EAF7822B30C022B381E090E001C01B
:10020000880F6A95EAF7822B32C0813089F028F096
:100210008230C9F0833011F108952BB381E090E072
:1002200001C0880F6A95EAF7809582238BBB0895F9
:1002300028B381E090E001C0880F6A95EAF78095C5
:10024000822388BB089525B381E090E001C0880F28
:100250006A95EAF78095822385BB089522B381E0F1
:1002600090E001C0880F6A95EAF78095822382BBEF
:1002700008950E943E0080E00E9457008AE00E949C
:100280004F000E946D00FFCF1F920F920FB60F928A
:1002900011242F933F934F935F936F937F938F938B
:1002A0009F93AF93BF93EF93FF93809164009091DE
:1002B0006500019690936500809364002091700022
:1002C000309171008217930761F480916E0082BFB4
:1002D0001092650010926400E0916800F09169004E
:1002E0000995FF91EF91BF91AF919F918F917F9170
:1002F0006F915F914F913F912F910F900FBE0F9093
:100300001F9018951F920F920FB60F9211242F93E2
:100310003F934F935F936F937F938F939F93AF938D
:10032000BF93EF93FF938091600090916100A09143
:100330006200B09163000196A11DB11D8093600021
:1003400090936100A0936200B093630040916A00B3
:1003500050916B0060916C0070916D00841795074F
:10036000A607B70769F4109260001092610010921E
:10037000620010926300E0916600F09167000995B9
:10038000FF91EF91BF91AF919F918F917F916F916D
:100390005F914F913F912F910F900FBE0F901F9043
:1003A0001895BA9A83B7886483BF83B7806283BF86
:1003B000089520E0982F822F64E670E00E94E70104
:1003C00061506CBF089583B7836083BF0895AA1BF3
:1003D000BB1B51E107C0AA1FBB1FA617B70710F030
:1003E000A61BB70B881F991F5A95A9F78095909562
:0A03F000BC01CD010895F894FFCF81
:00000001FF
